:020000040800F2
:100000003013002039020008EF05000883050008BE
:10001000ED050008CD040008F50C00080000000004
:10002000000000000000000000000000950700082C
:10003000CF040008000000006D0600084D0800080D
:10004000530200085302000853020008530200083C
:10005000530200085302000853020008530200082C
:10006000530200085302000853020008530200081C
:10007000530200085302000853020008530200080C
:100080005302000853020008530200080000000059
:100090000000000000000000000000005302000803
:1000A00053020008530200085302000853020008DC
:1000B00053020008530200085302000853020008CC
:1000C00053020008530200085302000853020008BC
:1000D00053020008990800085302000800000000BD
:1000E00053020008530200085302000800000000F9
:1000F00000000000000000000000000053020008A3
:1001000000000000530200085302000853020008D8
:1001100000000000000000000000000000000000DF
:10012000530200085302000853020008530200085B
:100130005302000800000000000000000000000062
:100140000000000000000000000000005302000852
:10015000530200085302000853020008530200082B
:1001600053020008530200080000000000000000D5
:10017000000000000000000000000000000000007F
:100180000000000053020008000000000000000012
:10019000530200085302000800F002F800F03CF897
:1001A0000AA090E8000C82448344AAF10107DA45D2
:1001B00001D100F031F8AFF2090EBAE80F0013F0E8
:1001C000010F18BFFB1A43F0010318473C31000030
:1001D0005C310000103A24BF78C878C1FAD85207C1
:1001E00024BF30C830C144BF04680C6070470000B1
:1001F0000023002400250026103A28BF78C1FBD830
:10020000520728BF30C148BF0B6070471FB502F0CE
:1002100039FA1FBD10B510BD00F01DF91146FFF7EA
:10022000F5FF00F07BFF00F03BF903B4FFF7F2FFAE
:1002300003BC00F045F90000094880470948004721
:10024000FEE7FEE7FEE7FEE7FEE7FEE7FEE7FEE786
:10025000FEE7FEE704480549054A064B70470000E3
:100260008508000899010008300D00203013002097
:10027000300F0020300F002040EA010310B59B072B
:100280000FD1042A0DD310C808C9121F9C42F8D000
:1002900020BA19BA884201D9012010BD4FF0FF30B1
:1002A00010BD1AB1D30703D0521C07E0002010BDC7
:1002B00010F8013B11F8014B1B1B07D110F8013B53
:1002C00011F8014B1B1B01D1921EF1D1184610BD34
:1002D000032A40F2308010F0030C00F0158011F872
:1002E000013BBCF1020F624498BF11F801CB00F84A
:1002F000013B38BF11F8013BA2F1040298BF00F89E
:1003000001CB38BF00F8013B11F0030300F025805A
:10031000083AC0F0088051F8043B083A51F804CB81
:10032000A0E80810F5E7121D5CBF51F8043B40F847
:10033000043BAFF30080D20724BF11F8013B11F852
:1003400001CB48BF11F8012B24BF00F8013B00F896
:1003500001CB48BF00F8012B704710B5203AC0F020
:100360000B80B1E81850203AA0E81850B1E81850B6
:10037000A0E81850BFF4F5AF5FEA027C24BFB1E8F3
:100380001850A0E8185044BF18C918C0BDE8104064
:100390005FEA827C24BF51F8043B40F8043B08BF6D
:1003A0007047D20728BF31F8023B48BF11F8012B34
:1003B00028BF20F8023B48BF00F8012B70474FF0E0
:1003C00000020429C0F0128010F0030C00F01B8022
:1003D000CCF1040CBCF1020F18BF00F8012BA8BF30
:1003E00020F8022BA1EB0C0100F00DB85FEAC17CF4
:1003F00024BF00F8012B00F8012B48BF00F8012BA7
:1004000070474FF0000200B51346944696462039D7
:1004100022BFA0E80C50A0E80C50B1F12001BFF4BD
:10042000F7AF090728BFA0E80C5048BF0CC05DF823
:1004300004EB890028BF40F8042B08BF704748BF71
:1004400020F8022B11F0804F18BF00F8012B7047E5
:10045000704770477047754600F02CF8AE460500AF
:100460006946534620F00700854618B020B5FFF7CF
:10047000F1FEBDE820404FF000064FF000074FF0BE
:1004800000084FF0000B21F00701AC46ACE8C009B2
:10049000ACE8C009ACE8C009ACE8C0098D467047BB
:1004A00010B50446AFF300802046BDE81040FFF7CA
:1004B000BCBE000000487047CC0C00207047000014
:1004C00001491820ABBEFEE726000200FEE7704798
:1004D0002DE9F041002201274FF0030C07FA02F545
:1004E0000B682B40AB422CD1066853000CFA03F486
:1004F000A64306604E68D0F800809E4046EA080693
:1005000006604E68012E01D0022E12D18668A643E5
:1005100086608E68D0F808809E4046EA08068660AD
:100520004668AE43466045688E899640B6B235430C
:100530004560C568A543C5600C699C40C3681C4301
:10054000C460521C102AC9D3BDE8F08110B54B0716
:10055000DB0E9A40C90800EB8100016A0F249C4021
:10056000A1430162016A1143016210BD02460020ED
:1005700012690A4200D00120704742694A40426134
:100580007047FEE710B545F2555000F029F80620F7
:1005900000F01AF84FF4437000F01CF800F00CF86B
:1005A000BDE81040AFF3008002494CF6CC40086033
:1005B000704700000030004002494AF6AA20086057
:1005C000704700000030004001494860704700005B
:1005D0000030004001498860704700000030004052
:1005E000014908607047000000300040FEE7704796
:1005F00030B50F23426801250178002A1FD0154A23
:10060000126802F4E062C2F5E062C2F30722C2F1AE
:100610000404D3404278A24084781C401443220151
:1006200001F1E02181F80024007800F01F018D40E5
:100630004009800000F1E020C0F8005130BD01F019
:100640001F0085404809800000F1E020C0F880517B
:1006500030BD00000CED00E002490843024908608B
:10066000704700000000FA050CED00E07047000044
:10067000054A002903D011680143116070471168D1
:10068000814311607047000030380240054A00295C
:1006900003D01168014311607047116881431160F4
:1006A0007047000020380240054A002903D0116835
:1006B0000143116070471168814311607047000069
:1006C00044380240054A002903D0116801431160F3
:1006D0007047116881431160704700002438024060
:1006E00070B5244B196801F00C01234C00291ED071
:1006F000224E04291DD008291DD00460196801F07C
:10070000F00109091E4A545C0168E14041601C681F
:1007100004F4E054A40A145D21FA04F484601B6814
:1007200003F460435B0BD25CD140C16070BD0460D8
:10073000E4E70660E2E70F4A121F1168C1F3805533
:10074000116801F03F0135B1B6FBF1F11468C4F353
:100750008814614305E0B4FBF1F11468C4F3881414
:1007600061431268C2F30142521C5200B1FBF2F124
:100770000160C3E7083802400024F40040787D019E
:1007800074000020024900220A70087070470000BF
:1007900002380240704700000CB50022019200921E
:1007A0002649086840F4A02008604FF4A043086878
:1007B00000F4003000900198401C0190009810B99E
:1007C00001989842F3D10868800302D50120009077
:1007D00000E00092009801282FD1184840300268AC
:1007E00042F0805202601648026842F440420260C1
:1007F000124808300268026002680260026842F42F
:1008000080520260031F0F4A1A600A6842F0807229
:100810000A600A689201FCD50B4940F202720A6034
:10082000016821F003010160016841F002010160EB
:100830000168C1F381010229FAD10CBD00380240E0
:100840000070004019644107003C024010B50C4C98
:100850002068401C206000F055FB30B100F046FBE2
:100860002168884201D800F057FBA068401EA060B4
:1008700005D16068401C60604FF47A70A06010BDC4
:10088000840000200348016841F470010160FFF713
:1008900083BF000088ED00E02DE9F8433F4E40F2B1
:1008A00025584146304600F084F9002869D030468A
:1008B00000F018FA3A4FC2B27A703A4B154603F27A
:1008C00025102A46A0F5E5642146A0F2B159009012
:1008D000484600F01FFE002102280BD0032809D053
:1008E000B8B33049B1F80900C97A40EA0140182884
:1008F0000FD046E04846A278521CA2702170012217
:100900006260FD2D3DD102226260C17001F072FC77
:1009100037E000224146304600F06BF9214C04F2EA
:100920004119E578342D00D3342534214846FFF7AA
:1009300046FD2A4604F10C014846FFF7C9FC1A4857
:10094000407F387038780A2804D84FF4FA60B860CD
:1009500006E016E038780C2802D34FF47A70B860BD
:1009600012480F4A01780832114801F07FFC4FF419
:100970000071304600F086F801224146304600F012
:1009800038F90821304600F00DF9002804D030462F
:10099000BDE8F84300F0A6B9BDE8F88300100140B7
:1009A0003C00002003070020440800200200002033
:1009B000580000202DE9F0418CB006460024089430
:1009C00009940A940B94142103A8FFF71AFD01213E
:1009D0001020FFF769FE01210846FFF749FEDFF806
:1009E0009C80072209214046FFF7B0FD07220A211B
:1009F0004046FFF7ABFD4FF4C06703970220049019
:100A00000694012507950320059003A94046FFF7AA
:100A10005FFDDFF86C80404600F044F80896ADF8C2
:100A20002440ADF82640ADF82840ADF82C400C200D
:100A3000ADF82A0008A9404600F0F6F869024046E1
:100A400000F020F80121404600F020F8012240F299
:100A50002551404600F0CDF83846FFF7FDFD252032
:100A60008DF804008DF805408DF80640029501A828
:100A7000FFF7BEFD0CB0BDE8F081000000000240B1
:100A8000001001408A05C94301807047002904D045
:100A9000818941F4005181817047818921F400519D
:100AA0008181704710B53749884209D10121102052
:100AB000FFF708FE0021BDE810401020FFF702BE3E
:100AC000314988420AD101214C042046FFF7DEFD5E
:100AD0002046BDE810400021FFF7D8BD2B498842D1
:100AE0000AD101218C042046FFF7D0FD2046BDE845
:100AF00010400021FFF7CABD254988420AD10121D3
:100B0000CC042046FFF7C2FD2046BDE8104000217E
:100B1000FFF7BCBD1F4988420AD101210C052046C0
:100B2000FFF7B4FD2046BDE810400021FFF7AEBD41
:100B30001949884209D101212020FFF7C3FD002176
:100B4000BDE810402020FFF7BDBD144988420AD1FE
:100B500001218C072046FFF799FD2046BDE8104093
:100B60000021FFF793BD0E4988420AD144050121B7
:100B70002046FFF78BFD2046BDE810400021FFF71F
:100B800085BD10BD001001400044004000480040F9
:100B9000004C00400050004000140140007800402C
:100BA000007C00400246002012880A4200D001204A
:100BB000704770B5002440F66A12C1F3421301F089
:100BC0001F05012606FA05F2012B0CD0022B0DD0D1
:100BD000838A1340090A8E40008830400BB100B16F
:100BE0000124204670BD83891340F3E7038A134034
:100BF000F0E710B540F66A13C1F3421301F01F0489
:100C00000121A140012B07D0022B07D014303AB1AB
:100C100002680A43026010BD0C30F8E71030F6E7B6
:100C200002688A43026010BD7FB504460D46208AE3
:100C300020F44051E88808432082A08941F20C61E9
:100C40008843A9882A8911436A8902431143A181F3
:100C5000A08A20F44071A8890843A0826846FFF763
:100C60003FFD1E48844202D01D48844201D10398B2
:100C700000E00298A189090408D500EBC00101EB4E
:100C8000001029684900B0FBF1F007E000EBC0015B
:100C900001EB001029688900B0FBF1F06422B0FB81
:100CA000F2F109010B096FF018056B4300EB8300AB
:100CB000A3891D044FF0320307D503EBC000B0FB3E
:100CC000F2F000F00700084306E003EB0010B0FB71
:100CD000F2F000F00F00084320817FBD00100140BA
:100CE000001401408088C0F308007047C1F3080178
:100CF00081807047FEE70246084601E0401EC0B210
:100D0000012804D9111811F8011C0029F6D07047E8
:100D10000246084601E0401EC0B2012804D911185D
:100D200011F8011C0029F6D07047000010B50446E8
:100D300000F0F2F80C4A0D48E16861B1016808E082
:100D4000A14205D11068E060BDE8104001F07ABC16
:100D500089680029F4D11168E1600168A16004602C
:100D6000BDE8104001F06EBCB400002090000020EF
:100D700070B504460D46A07BC00712D0A368002BB7
:100D80000FD00B48C4600220A073294604F10C0068
:100D90009847022806D0032804D0832D02D00120D2
:100DA000A07370BD21462046BDE8704000F0C4B875
:100DB000A80000200D484FF47A710068B0FBF1F0F4
:100DC000401EB0F1807F01D301200AE04FF0E02106
:100DD0004861074AF02010700020886107200861F0
:100DE0000020002800D0FEE77047000070000020BF
:100DF00023ED00E0014800687047000084000020F7
:100E00000A881346424082EA0210C0B21A0A82EAF5
:100E1000002282EAC00282EA1010088070470A8825
:100E20001346424082EA0210C0B21A0A82EA002245
:100E300082EAC00282EA10100880704770B51A4C2E
:100E4000E578002D28D02379184A03EB430012F8E7
:100E50002010217002EB800042682261806860618E
:100E60005B1C03F01F0323716D1EE57010B1812917
:100E700013D014E0A068A0610BE0607908B100F025
:100E800017F821782269A069FFF772FFA06900684E
:100E9000A061A0690028F0D170BD01238373BDE873
:100EA0007040FFF765BF0000A80000204C0B002039
:100EB00070B50948002545718468012609E0E07B8A
:100EC00030B1A673E573002282212046FFF750FF60
:100ED0002468002CF3D170BDA8000020C068002851
:100EE00001D00020704701207047000000B500F0DD
:100EF00009F810B10248406800BD002000BD0000A4
:100F00009000002003480068002801D001207047AD
:100F10000020704790000020014801F099B90000BE
:100F20009800002010B50446204601F084FB2046BE
:100F3000BDE81040FFF7FABE2DE9F04104468846AF
:100F40001C4EF768B06800E00068A04201D000289D
:100F5000FAD100282BD0204601F072F9B8B1002058
:100F6000A073B56807E0AC4204D02246872128462A
:100F7000FFF7FEFE2D68002DF5D1A3683BB1444577
:100F800005D0F4600022832104F10C009847B0687A
:100F9000844209D10068B06008E00168A14202D132
:100FA0002168016002E008460028F6D1F760BDE83C
:100FB000F0810000A80000202DE9F0410024DFF8B6
:100FC00058800026154D012708EBC400818858F889
:100FD0003400FFF7CBFA90B105EB8400C178491ECD
:100FE00049B2C170002904DC8770C67005F824601E
:100FF0004670641CE4B2002CE6D0BDE8F08105EB3D
:101000008400C178491C49B2C1700A29F1DB4770DC
:101010000A21C1708670ECE79026000822000020AB
:101020002DE9F04186B0142101A8FFF7EAF9002468
:1010300000260C4D01274FF0030805EBC400808803
:10104000019002960597CDF80C8055F8340001A95F
:10105000FFF73EFA641CE4B2002CEED006B0BDE807
:10106000F08100009026000870B505460C46084E39
:101070000AE080213046FFF795FD0028F9D015F8E9
:10108000011B3046FFF732FE641E24B2F1D270BD60
:101090000010014070B500201D498D1F012401EB97
:1010A000800252782AB1AA8804FA00F61643AE806C
:1010B00004E0AB8804FA00F29343AB80401C0128A3
:1010C000EDDB6988A888414000291FD00020264612
:1010D00006FA00F40C420CD00D49891D0880AA883C
:1010E00006FA00F0104201D04E8005E00020488052
:1010F00002E0401C0128EBDB0648054A0178921DFE
:10110000054801F0B3F8A88868802E7070BD000013
:101110002200002000000020480000200120FFF7EE
:1011200031FBFFF7AFFB01210720FFF7A1FAFFF723
:1011300041FE01F071FA01F077F801F06DF8134CFF
:10114000207001F069F8607001F066F8A07000216D
:101150000F4801F0C3F8002104F10C0001F0BEF8C3
:1011600000210C4801F0BAF800210B4801F0B6F854
:1011700000210A4801F0B2F8FFF704FA01F09EF8E6
:101180000028FBDC6068401C6060F7E7000000207E
:10119000980000202C00002048000020580000206B
:1011A0002DE9FF4FA1B00446DDE92E028B461F4614
:1011B000397CC1F34005002D07D1796929B109783F
:1011C000C90702D04FF0010901E04FF00009B9F161
:1011D000000F02D04FF00D0A01E04FF0000A0A267E
:1011E00004F10C08002D05D04FF0FE01A1704FF066
:1011F000060602E04FF0FD01A17003D11146404602
:10120000FFF779FDE07084F807B023982072002082
:101210002071B9F1000F01D0012121716071B87AFC
:10122000A071B87A401CB872A0788DF87800E07888
:101230008DF879006DB1A0798DF87A00E0798DF89C
:101240007B00207A8DF87C002089000A8DF87D00D3
:101250001AE020798DF87A0060798DF87B00A0790A
:101260008DF87C00E0798DF87D00207A8DF87E0085
:101270002089000A8DF87F00A068000C8DF880009E
:10128000A068000E8DF88100701E0DF179051FFA1F
:1012900080FB4FF6FF701C9004E015F8010B1CA9B1
:1012A000FFF7AEFDBBF1010B1FFA8BFBF5D2BDF8CA
:1012B00070001D901DA81C90454694F803B004E0F2
:1012C00015F8010B1C99FFF79BFDBBF1010B1FFAF1
:1012D0008BFBF5D21DA93098FFF792FDE178BDF8A0
:1012E000740001F80800BDF87400E278010A04F106
:1012F0000D001154BDF874002080B9F1000F41D0E9
:101300007D691EA81C9094F8039004F58B7709EB77
:10131000080BBDB32878C00734D068783870D5E999
:101320000201CDE900010098C7F80100BDF80400F2
:10133000A7F80500D5E90201401C41F10001C5E90B
:10134000020102A800F098FD202205F1100102A878
:1013500000F0B6FD324602A81C9900F0B1FD4A46E5
:10136000414602A800F0ACFD0222594602A800F056
:10137000A7FD0722394602A800F0A2FDF91D02A828
:1013800000F0EEFCE0780AF1020A304425B0504447
:10139000BDE8F08F2DE9FF4F87B00446DDE9140268
:1013A0000E461F46397CC1F34005002D07D17969EF
:1013B00029B10978C90702D04FF0010A01E04FF0C6
:1013C000000ABAF1000F02D04FF00D0B01E04FF010
:1013D000000B4FF00A0904F10C08002D05D04FF066
:1013E000FE01A1704FF0060902E04FF0FD01A1706F
:1013F00003D111464046FFF78BFCE070E671099877
:10140000207200202071BAF1000F01D0012121715A
:101410006071B87AA071B87A401CB872A0788DF863
:101420001000E0788DF811006DB1A0798DF81200F0
:10143000E0798DF81300207A8DF814002089000AD5
:101440008DF815001AE020798DF8120060798DF87A
:101450001300A0798DF81400E0798DF81500207A3A
:101460008DF816002089000A8DF81700A068000C7E
:101470008DF81800A068000E8DF81900A9F1010080
:101480000DF1110685B24FF6FF70029004E016F8D8
:10149000010B02A9FFF7C3FC6D1EADB2F7D2BDF878
:1014A0000800039003A802904546E67804E015F88A
:1014B000010B0299FFF7B3FC761EB6B2F7D203A96F
:1014C0001698FFF7ACFCE178BDF80C0001F80800B5
:1014D000BDF80C00E278010A04F10D001154BDF8CA
:1014E0000C002080BAF1000F0CD0E0784B4600EBE6
:1014F0000801CDE90080029104AA04F58B71786996
:1015000000F05CFDE0780BF1020B48440BB058444E
:10151000BDE8F08F2DE9F05F05460A9F0C461646A0
:1015200098464FF0000984F80090606802214FF05F
:101530000C0B4FF0010A10280DD2DFE800F008086C
:1015400025394B535B636B818FA2B2FAFAF8FD2EFB
:1015500002D0FE2E0CD04CE1616085F80390AE7095
:10156000207C20F001002074284600F043FE40E17A
:10157000616085F80390AE70207C40F0010020741B
:10158000284600F037FE34E1EE7084F808903146CA
:10159000284600F033FE207CC00706D085F8049072
:1015A00085F805900520606023E10320606020E15C
:1015B0002E71700807D0A078401CA07084F80090AD
:1015C000C4F804A015E13146284600F017FE0420B7
:1015D00060600EE16E713146284600F00FFE052076
:1015E000606006E1AE713146284600F007FE062035
:1015F0006060FEE0EE713146284600F0FFFD0720F6
:101600006060F6E02E723146284600F0F7FD0820B3
:101610006060EEE0A86866F31F20A86031462846A7
:1016200000F0ECFD207CC00707D0E87810B10B205B
:101630006060DEE0C4F804B0DBE009206060D8E060
:10164000A868010A41EA062161F31F20A86031461B
:10165000284600F0D3FD0A206060CAE0A868010AAD
:1016600041EA064161F31F20A8603146284600F098
:10167000C5FDE87810B10B206060BAE0C4F804B092
:10168000B7E0207A411C284421720673314628466F
:1016900000F0B4FD207AE978884201D1C4F804B0A2
:1016A000A7E0A868030A0021DA22DFF8ACC10DE048
:1016B0008818401C400800EB400A5CF82AA09A45B4
:1016C00002D9A0F1010201E00AD201469142EFD312
:1016D00001EB41005CF82010994203D0CA4603E0B8
:1016E0000146F5E70CEB800ABAF1000F02D09AF838
:1016F000041000E00021284600F080FD2878B04268
:1017000002D00E20606001E00D20606085F8146159
:10171000BAF1000F6DD0207A9AF80610884268D28C
:10172000091A05F10C021044FEF749FE61E033E0AE
:10173000FFE70E2803D02888B6EB102F01D02170C8
:1017400001E084F800A085F815612879C00709D068
:101750000F2060600D2060742078022849D084F842
:10176000009046E0606958B1026B22B1A868010A96
:101770002046904720B92078022801D0032020700D
:10178000C4F804A0B8F1000F33D040F22312294668
:101790004046FEF79DFD2CE0607CC0F10D00284422
:1017A00080F81661607C401EC0B2607408BBD4E94A
:1017B00005012A4600F06CFC0646300008D160693D
:1017C000026B2AB1A868010A2046904700B10126A1
:1017D00016B184F800A001E003202070C4F804A032
:1017E000B8F1000F05D040F2231229464046FEF71B
:1017F0006FFD2078012807D1A8796072A08908B907
:10180000A4F80E90401CA081B8F1000F02D0E87837
:1018100088F8030067B160687860207A3872607A6F
:10182000401C7872A089B881A078F881207C387437
:1018300084F80290207802280AD1B8F1000F07D06E
:1018400095F8140195F8151140EA0120A8F8000058
:101850002078BDE8F09F0000982700082DE9F04FA0
:101860008DB0064617A80D46144690E88710DDE9AE
:101870001EAEDDE91C89DDF858B0ADF80C00ADF8FE
:101880000E10ADF81020ADF81270ADF814C0ADF820
:101890001680ADF81890ADF81AA08DF81C308DF8B0
:1018A0001DB0ADF81EE02098ADF820002198ADF8ED
:1018B00022002298ADF824002398ADF82600249841
:1018C000ADF828002598ADF82A002698ADF82C0030
:1018D0002798ADF82E002898ADF83000262203A9ED
:1018E00004F10C00FEF739FD207A00F58C40A06071
:1018F00020464FF0120826274FF07C0C31462A462E
:10190000044BCDE9017CCDF80080FFF743FD0DB01D
:10191000BDE8F08F78090020F0B585B00546DDE917
:101920000A760C4603968DF810308DF811700398E6
:10193000D060BDF810001082117A01F5306191601D
:1019400006273E464FF0590C104629462246044BC6
:10195000CDE9016C0097FFF723FC05B0F0BD000056
:10196000E40000202DE9F04705460C46E678A07813
:1019700004F10C08FE282AD031464046FFF7BBF997
:1019800006464FF00909A07828706E702079A8707B
:101990006079E870A0792871E0796871207AA8717F
:1019A0002089000AE871A068000C2872A068000E67
:1019B00068723246414605F10A00FEF789FC093596
:1019C000A819401C2179C90718D00D2717E0002756
:1019D0004FF0050928706E70A079A870E079E87062
:1019E000207A28712089000A6871E2784146A81D92
:1019F000FEF76EFCE0782844801D00E00027217887
:101A000001702188090A41702FB13A4604F58B71A3
:101A1000801CFEF75DFC09EB06003844C01CBDE8E5
:101A2000F0872DE9F04705460C46E678A07804F1EA
:101A30000C08FE282AD031464046FFF769F90646D1
:101A40004FF00909A07828706E702079A87060792D
:101A5000E870A0792871E0796871207AA8712089EE
:101A6000000AE871A068000C2872A068000E687275
:101A70003246414605F10A00FEF72AFC0935A8194D
:101A8000401C2179C90718D00D2717E000274FF017
:101A9000050928706E70A079A870E079E870207A46
:101AA00028712089000A6871E2784146A81DFEF776
:101AB0000FFCE0782844801D00E0002721780170A9
:101AC0002188090A41702FB13A4604F58B71801CB8
:101AD000FEF7FEFB09EB06003844C01CBDE8F087AA
:101AE0002DE9F04FC9B083684893C46847940569ED
:101AF0004695D0F81480CDF8148182694492C76964
:101B00004397066A4296D0F82490CDF804914FF09E
:101B1000000AEC4651F82AB04CF82AB00AF1010A42
:101B2000BAF1100FF6DB1021A1F1020A5CF82AA02D
:101B30004FEA7A4B8BEAFA4B8BEA9A2EA1F10F0A05
:101B40005CF82AA0CDF800A14FEAFA1B8BEABA4B49
:101B50008BEADA0A0EEB0A0BA1F1070A5CF82AE01D
:101B6000A1F1100A5CF82AA0F244DA444CF821A052
:101B7000491C4029D8DB0021E6464FEAB21A8AEA1E
:101B8000F22A02EA070C26EA020B8AEA726A8CEA57
:101B90000B0CE244DFF884C05CF821C0CC440AEBB3
:101BA0000C095EF821C0CC4403EA040903EA050BE2
:101BB0004FEAB30A89EA0B098AEA733A04EA050B89
:101BC0008AEAB35A89EA0B09CA44B1463E46174627
:101BD00008EB0C02A84625461C460CEB0A03491CE0
:101BE0004029CADB48991944816047992144C16062
:101BF0004699294401614599414441614499114400
:101C0000816143993944C1614299314401624199EA
:101C10004944416249B0BDE8F08F000098260008B1
:101C20002DE9F04FC9B083684893C46847940569AB
:101C30004695D0F81480CDF8148182694492C76922
:101C40004397066A4296D0F82490CDF804914FF05D
:101C5000000AEC4651F82AB04CF82AB00AF1010A01
:101C6000BAF1100FF6DB1021A1F1020A5CF82AA0EC
:101C70004FEA7A4B8BEAFA4B8BEA9A2EA1F10F0AC4
:101C80005CF82AA0CDF800A14FEAFA1B8BEABA4B08
:101C90008BEADA0A0EEB0A0BA1F1070A5CF82AE0DC
:101CA000A1F1100A5CF82AA0F244DA444CF821A011
:101CB000491C4029D8DB0021E6464FEAB21A8AEADD
:101CC000F22A02EA070C26EA020B8AEA726A8CEA16
:101CD0000B0CE244DFF884C05CF821C0CC440AEB72
:101CE0000C095EF821C0CC4403EA040903EA050BA1
:101CF0004FEAB30A89EA0B098AEA733A04EA050B48
:101D00008AEAB35A89EA0B09CA44B1463E461746E5
:101D100008EB0C02A84625461C460CEB0A03491C9E
:101D20004029CADB48991944816047992144C16020
:101D300046992944016145994144416144991144BE
:101D4000816143993944C1614299314401624199A9
:101D50004944416249B0BDE8F08F0000DC31000821
:101D60002DE9F04192B004460E462088C0F3C5002C
:101D7000C0F1770000F03F077F1C04F108058020C8
:101D80008DF800004721E8460DF10100FEF717FB32
:101D900008EB07002178C1712188090A8171216847
:101DA000090C41712168090E01712179C170A18866
:101DB000090A81706168090C41706068000E08F8BA
:101DC000070007F108026946204600F079F8E87834
:101DD0003070A87870706878B0702878F070E87902
:101DE0003071A879707112B0BDE8F0812DE9F04131
:101DF00092B004460E462088C0F3C500C0F17700BB
:101E000000F03F077F1C04F1080580208DF80000DA
:101E10004721E8460DF10100FEF7D1FA08EB070073
:101E20002178C1712188090A81712168090C4171E9
:101E30002168090E01712179C170A188090A817098
:101E40006168090C41706068000E08F8070007F12E
:101E500008026946204600F072F8E8783070A878E9
:101E600070706878B0702878F070E8793071A8796F
:101E7000707112B0BDE8F081002101604160084935
:101E800081600849C1600849016108494161084908
:101E900081610849C161084901620849416270478E
:101EA00067E6096A85AE67BB72F36E3C3AF54FA5EB
:101EB0007F520E518C68059BABD9831F19CDE05B17
:101EC0002DE9F04190B0074688461646386800EB89
:101ED000C6013960814202D27968491C7960C0F339
:101EE000C50427E0C4F14005AE4200D2354638199A
:101EF00028302A464146FEF7EBF92C44A844761BCD
:101F0000402C17D107F128000022694600EB82031C
:101F100001EB8204DD7825709D7865705D78A57091
:101F20001B78E370521C102AF0DB69463846FFF735
:101F3000D7FD0024002ED5D110B0BDE8F0812DE9E9
:101F4000F04190B0074688461646386800EBC60157
:101F50003960814202D27968491C7960C0F3C504B6
:101F600027E0C4F14005AE4200D23546381928308A
:101F70002A464146FEF7ACF92C44A844761B402C77
:101F800017D107F128000022694600EB820301EB1C
:101F90008204DD7825709D7865705D78A5701B786A
:101FA000E370521C102AF0DB69463846FFF738FE12
:101FB0000024002ED5D110B0BDE8F0812DE9F0430A
:101FC0009DB00C46DDE92589249F15461E46002854
:101FD0004BD00178C90748D041782170D0E902126E
:101FE000CDE900120099C4F80110BDF80410A4F85E
:101FF0000510D0E90212491C42F10002C0E90212A8
:102000000021029103911A4904911A4905911A4934
:1020100006911A4907911A4908911A4909911A49D2
:102020000A911A490B9100F11001202202A8FFF732
:1020300086FF3246294602A8FFF781FF424639460D
:1020400002A8FFF77CFF0222494602A8FFF777FFAC
:102050000722214602A8FFF772FFE11D02A8FFF741
:10206000C5FE0D201DB0BDE8F0830020FAE700009A
:1020700067E6096A85AE67BB72F36E3C3AF54FA519
:102080007F520E518C68059BABD9831F19CDE05B45
:102090002DE9F043A1B006460D461446002E32D07D
:1020A00004F1020904F58B7707F1070806A8FFF78A
:1020B000E3FE202206F1100106A8FFF701FF0A2225
:1020C000494606A8FFF7FCFEE27804F10C0106A8D9
:1020D000FFF7F6FE022204F58A7106A8FFF7F0FE6C
:1020E0000722394606A8FFF7EBFE04A906A8FFF76A
:1020F00037FE0622414604A8FEF7BEF828B10020AC
:1021000021B0BDE8F0830120FAE73B78002102917D
:102110000391D7F801000290B7F80500ADF80C0064
:102120000DB1288815E00020EAE701EBC1022A443E
:1021300094F807C092F80380C44508D194F808C009
:1021400092F80480C44502D192789A4203D0491C87
:1021500089B28842E9D8884220D1102801D30020D2
:10216000CEE7DDE90202DFF888C010EB0C0842F18F
:102170000000D6E9022CB8EB020270EB0C0001D291
:102180000020BDE701EBC1002844E279C270227A49
:10219000027183702888401C288014E0002200927D
:1021A000019201EBC100284450F8052F009280886D
:1021B000ADF80400DDE90242DDE900301B1B90416F
:1021C00001D300209CE701EBC100284457F8011F10
:1021D00040F8051FB9888180D6E90230DDE9021296
:1021E0005B1A904101D2C6E90212012088E7000083
:1021F000808D5B004FF6FF710180704738B5044653
:102200000A462088009069461046FEF7F9FDBDF8A1
:102210000000208038BD000002498878421C8A7086
:1022200070470000A800002004488A218170002126
:102230000171C1708160C16070470000A80000207A
:10224000807B002801D001207047002070470000EB
:10225000002808D0817B012901D0022903D1012166
:10226000C173014841717047A800002070B50C4D42
:10227000EB78202B11D02C791C4404F01F046C70D7
:10228000084E04EB440406F8241006EB84014A606F
:1022900088605B1CEB70002070BD012070BD0000E9
:1022A000A80000204C0B002070B5034DEC68FEF731
:1022B0005FFDEC6070BD0000A800002010B5064C6A
:1022C0006079002801D0FEF7F3FDFEF7B7FDE07856
:1022D0006179084410BD0000A800002030B40C4D06
:1022E000AB681C4600E01B68834201D0002BFAD18A
:1022F00083420AD00460A860012282730022828196
:102300000A4630BC8121FFF7CFBF30BC70470000C8
:10231000A800002010B5044601202188002905D01E
:1023200032290CD000202080032010BDFEF778FE5B
:1023300001210948FEF7F6FD00203221218040B13D
:102340000548FEF7CBFD20B1FEF736FEFEF7A2FEF4
:10235000EEE7012010BD0000D40000202DE9F04779
:1023600006468946924601203188DFF8A48000277E
:10237000002905D05B2908D037800320BDE8F0870D
:10238000C8F8007000205B21318048B1B9F1870F97
:102390000BD0B9F1820FF5D10025D8F8004027E025
:1023A0000120EBE78868C8F80000D8F8001011B1E8
:1023B000CA685245F6D0D8F8000038B9E2E7C368D9
:1023C000534502D18068886000E001468868002893
:1023D000F5D1D7E7204600F020F938B12246882110
:1023E000E068FFF743FF30B1FEF796FD2546A4688D
:1023F000002CEFD1C6E7E76015B1A068A86002E045
:10240000A068C8F80000A76000F01CF9C4E700004D
:10241000900000202DE9FC4704460D46904601201F
:1024200021880027002905D022290AD027800320EF
:10243000BDE8FC874FF46140FEF7BCFA0020222182
:10244000218038B11F4801781F488D4204D001789F
:102450008D4201D00120EBE71C49D8F800200A602A
:1024600000788542EAD1088849880028E6D1D12041
:1024700001291DD00A21CDE900010123144A9E2122
:10248000FF20FFF749FA1249FD20887001F52670F8
:10249000FFF768FA0646DFF83C9080214846FEF7D1
:1024A00081FB0028F9D031B20B48FEF7DDFDC5E70E
:1024B000CDE900070123064A9E21FF20FFF72CFAF1
:1024C000E1E70000010000200000002040000020A3
:1024D000E00500200010014078080020F0B585B02C
:1024E00004460120228800254603184F002A05D003
:1024F000252A15D02580032005B0F0BD00960120C7
:102500000190039504900320029069463846FDF738
:10251000DFFF01210E48FEF705FD00202521218067
:1025200090B10B48FEF7DAFC70B10A498868401C8C
:102530008860B0F5FA7FECDB8D60FEF73DF8314640
:102540003846FEF71AF8E4E70120D5E70008024014
:10255000C4000020000000202DE9F04194B00446A2
:102560000D46164601202188002946D0182905D09D
:1025700000202080032014B0BDE8F08118B121486C
:102580000078854201D00120F5E71F4930680860D6
:1025900083B2081F03804FF47A70CDE910300D909C
:1025A000089040F6C4110F93039012910B900A907B
:1025B000012105900690CDE900100C900E90079037
:1025C000099004900B460290104A9E21FF20FFF7CD
:1025D00045F90E49FD20887001F22310FFF721FA1A
:1025E0000746DFF82C8080214046FEF7DBFA002802
:1025F000F9D039B20748FEF737FD002018212180B5
:10260000BCE70000020000206C000020E809002068
:10261000001001400B0B0020704710B50446FEF778
:10262000E9FB2168401A401C6168814201D2012007
:1026300010BD002010BD10B504466160FEF7DAFB46
:10264000206010BD70B50E4C2068002808D0FEF741
:10265000D1FB2168D1E900231A44121A89680AE0E3
:102660000020606070BDD1E900352B441B1A9342F5
:1026700000D21A4689680029F5D11044606070BD07
:10268000900000204FF04070E1EE100A704700000B
:102690000000024000010000982F8A4291443771E7
:1026A000CFFBC0B5A5DBB5E95BC25639F111F159D5
:1026B000A4823F92D55E1CAB98AA07D8015B831217
:1026C000BE853124C37D0C55745DBE72FEB1DE80C3
:1026D000A706DC9B74F19BC1C1699BE48647BEEFF2
:1026E000C69DC10FCCA10C246F2CE92DAA84744A7D
:1026F000DCA9B05CDA88F97652513E986DC631A8F3
:10270000C82703B0C77F59BFF30BE0C64791A7D5D1
:102710005163CA0667292914850AB72738211B2E59
:10272000FC6D2C4D130D385354730A65BB0A6A7641
:102730002EC9C281852C7292A1E8BFA24B661AA84D
:10274000708B4BC2A3516CC719E892D1240699D65D
:1027500085350EF470A06A1016C1A419086C371ED6
:102760004C774827B5BCB034B30C1C394AAAD84EB4
:102770004FCA9C5BF36F2E68EE828F746F63A578EF
:102780001478C8840802C78CFAFFBE90EB6C50A482
:10279000F7A3F9BEF27871C6000000003209090003
:1027A00000000000010000007C1F2B000000000062
:1027B00002000000890C0C00000000000400000072
:1027C000ED0E0E030C0D000005000000D91C1C01CD
:1027D0000000000006000000680303000000000085
:1027E0000700000077202000000000000800000023
:1027F00075242400000000000B00000059060601AB
:102800000400000014000000D614140302030000AA
:10281000150000009F0202030001000016000000E6
:10282000DC1919000000000017000000A8171703AA
:102830000405000018000000181E3400000000000D
:102840001900000017656500000000001A00000074
:10285000AA161800000000001B000000901A1D00BE
:10286000000000001C0000004310100000000000E9
:102870001D000000730E1000000000001E0000008C
:10288000271C1C00000000001F000000F620300084
:102890000000000020000000B91C1C000000000027
:1028A00021000000681C1C00000000002200000045
:1028B000ED1616000000000023000000F4161600BC
:1028C0000000000024000000DE15250000000000CC
:1028D00025000000D40607030405000026000000C0
:1028E000090607030405000027000000FE25260353
:1028F0002021000028000000E60405030203000078
:10290000290000001C040403020300002A00000048
:102910001C020200000000002B00000084020303E0
:10292000000100002C000000DD040503020300008C
:102930002D000000E8020303000100002E0000004B
:102940000B020200000000002F00000099030403A6
:102950000001000030000000290D15010C000000EE
:1029600031000000270C14000000000032000000BD
:102970004E2525031213000033000000C404050394
:1029800002030000360000000F1B1B031819000093
:102990003700000003191900000000003D0000008E
:1029A000A7484800000000003E000000B71A1A00C7
:1029B000000000003F00000077B5B50000000000F7
:1029C00040000000BFE1E100000000004100000005
:1029D000762A2A0000000000420000009406060348
:1029E0000203000043000000150404000000000082
:1029F00045000000F30B12010A0000004600000031
:102A00007C12260310110000490000002625260331
:102A1000202100004A0000001414140000000000EF
:102A20004B0000009E2323031E1F00004C000000EB
:102A3000982121031E1F00004D0000008F030A0390
:102A400008090000500000000E0404030203000007
:102A5000510000006A16160000000000520000003D
:102A600031273303242500005300000016252500DC
:102A700000000000540000008F35350332330000A1
:102A8000550000008C3333000000000056000000A9
:102A9000053535033233000057000000963333000C
:102AA0000000000059000000E71C1C0000000000AE
:102AB0005A000000B7383800000000005B0000003A
:102AC0003F2A2A00000000005C000000362121009F
:102AD000000000005D0000002F51510000000000C8
:102AE00064000000AF1A2200000000006500000032
:102AF0006620750000000000660000009E20750042
:102B00000000000067000000D01439000000000041
:102B10006800000038207400000000006900000018
:102B20005D3E3F00000000006A0000008A2C2C007F
:102B3000000000006B0000006C404100000000003D
:102B40006C00000020545400000000006D000000E4
:102B5000B9090900000000006E00000054FEFE03E9
:102B6000010200006F0000002210100000000000B1
:102B700070000000AE0C0C000000000071000000AE
:102B80007C2427000000000072000000ED2C2C00C7
:102B9000000000007300000004404000000000003E
:102BA000740000004C1618000000000075000000C2
:102BB000800606030405000076000000380E0E00B3
:102BC0000000000077000000740C0C030A0B0000EA
:102BD00078000000866161000000000079000000BC
:102BE000ED020203000100007A000000CB020203A4
:102BF000000100007B000000FA7171030001000079
:102C00007C00000057233900000000007D00000018
:102C1000CB060600000000007E000000DC4F5103E0
:102C20004F5000007F000000192323000000000027
:102C300080000000E223230000000000810000006B
:102C40002E16180000000000820000001D0D0D006F
:102C50000000000083000000DFFFFF000000000014
:102C600084000000550E27000000000085000000D1
:102C7000061212000000000086000000E52B2B0069
:102C80000000000087000000CB08080000000000E2
:102C900088000000011616000000000089000000F6
:102CA000C30E1000000000008A0000006D247800B0
:102CB000000000008B000000A82B2B03292A000035
:102CC0008C000000B5292900000000008D000000E4
:102CD0002F202000000000008E00000048F3F300C9
:102CE000000000008F000000830E100000000000B4
:102CF000900000007F5D5D00000000009200000079
:102D00006764640000000000930000009A2436000D
:102D10000000000094000000B23C4E0000000000E3
:102D200095000000C81E3C0000000000A20000004A
:102D3000BD08090000000000C0000000242C36007F
:102D400000000000E1000000D0414500000000004C
:102D5000E6000000A32A2A0000000000E7000000AF
:102D60006928280000000000E8000000973F4100AB
:102D700000000000E900000023B6B60000000000DB
:102D8000EA0000009628280000000000EB00000088
:102D9000B32A2A0000000000F10000005A202000A1
:102DA00000000000F200000068343C000000000059
:102DB000F300000055353D0134000000F400000030
:102DC0005F06060000000000F5000000820202001D
:102DD00000000000F6000000B826260000000000F9
:102DE000F70000005113130000000000F80000007D
:102DF00008FEFE0303040000F9000000CC242400B8
:102E000000000000FA000000311E1E00000000005B
:102E1000FB000000AA12120000000000FC000000ED
:102E20002C12120000000000FD0000005333360099
:102E300000000000FE0000002E0909000000000054
:102E400000010000472A2A030809000001010000D0
:102E5000830909000000000002010000BB20E80314
:102E600000010000030100005CEBEB00000000002B
:102E70000401000092050D000000000005010000A3
:102E8000B31B3D0000000000060100000C121600FC
:102E9000000000000701000085FFFF0000000000A7
:102EA00008010000311C1C000000000009010000A6
:102EB0001A101400000000000A010000C1FFFF0307
:102EC000020300000B01000023FFFF0302030000C8
:102ED0000C0100000E040403020300000D010000B9
:102EE0006DD5D500000000000E0100003B1313005B
:102EF000000000000F010000163434000000000044
:102F0000130100007E1F1F000000000014010000DC
:102F1000123131000000000018010000462121009C
:102F20000000000019010000300D0D00000000003D
:102F30001A0100007B232303202100001B01000055
:102F40004A909000000000001C0100006320200354
:102F50001E1F00001D0100008928280326270000ED
:102F60001E010000D2353503323300001F0100007E
:102F70000117170314150000200100001417170390
:102F80001415000022010000FB2E2E00000000009E
:102F9000230100000A393900000000002B01000065
:102FA00013606200000000002C010000D91616001A
:102FB000000000002D010000F33A3A00000000007C
:102FC000360100001C111100000000003701000054
:102FD0005F7474000000000040010000F31414034B
:102FE000020300004101000058020203000100003A
:102FF00042010000F395950000000000430100002D
:103000004E9393030001000044010000849292005B
:10301000000000004A010000179EA7000000000009
:103020004B0100005BE6E900000000004C010000DD
:10303000ECEFEF00000000004D010000E76D6D00B7
:10304000000000004E010000480A0A0000000000D5
:103050004F010000E11818000000000050010000BE
:10306000F55454000000000053010000C70505009E
:10307000000000005401000063464600000000000C
:103080005E010000E814FC00000000006801000080
:103090000B19190000000000720100004B576D0071
:1030A0000000000075010000752A2A0000000000E1
:1030B00077010000FB8C8C00000000007C01000008
:1030C000E8141400000000008101000093858503CE
:1030D00002030000820100008410100304050000B8
:1030E0008301000004484803040500008401000037
:1030F0000825250320210000860100009CEEEE003B
:10310000000000008B01000000D4D400000000008B
:103110008D010000B66C6C00000000009001000002
:103120006EFEFE030405000091010000B7060603D1
:10313000040500009A010000A035350000000000E1
:103140009B0100006A030300000000009C010000D6
:1031500021060603040500009D0100004D0707033A
:103160000405000028230000718989000000000088
:103170002D230000752222000000000064320000B0
:10318000722C2C030001000065320000FE3B3B0363
:103190001E1F0000663200008C3535030405000058
:1031A00067320000F92E2E03000100006832000093
:1031B0004D3636031C1D000069320000312B2B03F5
:1031C00000010000733200005EF9F9030001000005
:1031D000783200001405050000000000982F8A4294
:1031E00091443771CFFBC0B5A5DBB5E95BC2563959
:1031F000F111F159A4823F92D55E1CAB98AA07D871
:10320000015B8312BE853124C37D0C55745DBE7293
:10321000FEB1DE80A706DC9B74F19BC1C1699BE413
:103220008647BEEFC69DC10FCCA10C246F2CE92DA3
:10323000AA84744ADCA9B05CDA88F97652513E98C7
:103240006DC631A8C82703B0C77F59BFF30BE0C6CE
:103250004791A7D55163CA0667292914850AB7275C
:1032600038211B2EFC6D2C4D130D385354730A65F9
:10327000BB0A6A762EC9C281852C7292A1E8BFA2D0
:103280004B661AA8708B4BC2A3516CC719E892D138
:10329000240699D685350EF470A06A1016C1A419BB
:1032A000086C371E4C774827B5BCB034B30C1C39BA
:1032B0004AAAD84E4FCA9C5BF36F2E68EE828F7479
:1032C0006F63A5781478C8840802C78CFAFFBE9093
:1032D000EB6C50A4F7A3F9BEF27871C64C6564009C
:1032E000427574746F6E0000545F6578650000006D
:1032F000545F736174656C6C697465004576656EC6
:10330000742074696D657200283300080000002085
:10331000C4000000D4010008EC330008C400002001
:103320006C120000F0010008000000000000000026
:103330000000000000000000DC320008DD2400086E
:10334000000000000000FFFF00000000000000007F
:103350000000000000000000E03200081523000813
:10336000000000000000000000000000000000005D
:1033700000000000E83200081524000800000000EA
:1033800000000000F032000859250008000000008D
:10339000000000000000000000E1F5050000000052
:1033A00001020304010203040607080900000000EB
:1033B00000000000E8030000000000000000000022
:1033C00000000000FC3200085D230008000000003F
:1033D00000000000000000000000000000000000ED
:0C33E000000000000000000000000000E1
:040000050800019955
:00000001FF
